:020000040000FA
:100000000C945D000C94BA030C9493030C9485003B
:100010000C9485000C9485000C9485000C9485004C
:100020000C9485000C9485000C9485000C9485003C
:100030000C9485000C9485000C9485000C9485002C
:100040000C9449030C9485000C9407040C94E10370
:100050000C9485000C9485000C9485000C9485000C
:100060000C9485000C9485000000000024002700FB
:100070002A0000000000250028002B0004040404CE
:100080000404040402020202020203030303030342
:10009000010204081020408001020408102001021F
:1000A00004081020000000080002010000030407FB
:1000B0000000000000000000420611241FBECFEF28
:1000C000D8E0DEBFCDBF11E0A0E0B1E0ECEEF1E1A1
:1000D00002C005900D92A833B107D9F721E0A8E33B
:1000E000B1E001C01D92AA3EB207E1F710E0CDE5F4
:1000F000D0E004C02197FE010E94DF08CC35D10773
:10010000C9F70E9439040C94F4080C94000090E0A4
:10011000FC01EC55FF4F2491FC01E057FF4F349157
:10012000FC01E458FF4FE491EE23C9F0222339F09B
:10013000233001F1A8F4213019F1223029F1F0E047
:10014000EE0FFF1FEE58FF4FA591B4918FB7F894B3
:10015000EC91611126C030953E233C938FBF0895EA
:100160002730A9F02830C9F0243049F78091800069
:100170008F7D03C0809180008F7780938000DFCFD8
:1001800084B58F7784BDDBCF84B58F7DFBCF809125
:10019000B0008F778093B000D2CF8091B0008F7D78
:1001A000F9CF3E2BDACFCF93DF9390E0FC01E057FD
:1001B000FF4F249184589F4FFC0184918823D1F0F4
:1001C00090E0880F991FFC01E859FF4FA591B49169
:1001D000FC01EE58FF4FC591D49161110EC09FB73D
:1001E000F8948C91E22FE0958E238C932881E22362
:1001F000E8839FBFDF91CF9108958FB7F894EC917A
:10020000E22BEC938FBFF6CF80913A0190913B01A6
:10021000019690933B0180933A0108950895AF921F
:10022000BF92CF92DF92EF92FF920F931F93CF93E3
:10023000DF936C017B018B01040F151FEB015E0145
:10024000AE18BF08C017D10759F06991D601ED91DA
:10025000FC910190F081E02DC6010995892B79F779
:10026000C501DF91CF911F910F91FF90EF90DF902B
:10027000CF90BF90AF900895FC01538D448D252FF2
:1002800030E0842F90E0821B930B541710F0CF9630
:10029000089501970895FC01918D828D981761F062
:1002A000A28DAE0FBF2FB11D5D968C91928D9F5F79
:1002B0009F73928F90E008958FEF9FEF0895FC0158
:1002C000918D828D981731F0828DE80FF11D858D0B
:1002D00090E008958FEF9FEF0895FC01918D228D9E
:1002E000892F90E0805C9F4F821B91098F73992723
:1002F00008958DE491E00E946D0121E0892B09F4BD
:1003000020E0822F089580E090E0892B29F00E9460
:10031000790181110C9400000895FC01A48DA80FAF
:10032000B92FB11DA35ABF4F2C91848D90E0019637
:100330008F739927848FA689B7892C93A089B18957
:100340008C91837080648C93938D848D981306C0F8
:100350000288F389E02D80818F7D80830895EF925C
:10036000FF920F931F93CF93DF93EC0181E0888F6F
:100370009B8D8C8D98131AC0E889F989808185FF3F
:1003800015C09FB7F894EE89FF896083E889F989E1
:1003900080818370806480839FBF81E090E0DF91E3
:1003A000CF911F910F91FF90EF900895F62E0B8D36
:1003B00010E00F5F1F4F0F731127E02E8C8D8E11F1
:1003C0000CC00FB607FCFACFE889F989808185FF58
:1003D000F5CFCE010E948D01F1CFEB8DEC0FFD2FFB
:1003E000F11DE35AFF4FF0829FB7F8940B8FEA8913
:1003F000FB8980818062CFCFCF93DF93EC01888D22
:100400008823B9F0AA89BB89E889F9898C9185FD8F
:1004100003C0808186FD0DC00FB607FCF7CF8C911D
:1004200085FFF2CF808185FFEDCFCE010E948D0147
:10043000E9CFDF91CF910895FC0101900020E9F709
:100440003197AF01481B590BBC018DE491E00C942E
:100450000F018F929F92AF92BF920F931F93CF93F2
:10046000DF93CDB7DEB7A1970FB6F894DEBF0FBE0E
:10047000CDBF19A2423008F44AE08E010F5D1F4F34
:10048000842E912CB12CA12CA50194010E94B208BC
:10049000E62FB901CA01EA30F4F4E05DD801EE9329
:1004A0008D01232B242B252B79F790E080E01097EA
:1004B00019F0CD010E941C02A1960FB6F894DEBF80
:1004C0000FBECDBFDF91CF911F910F91BF90AF9025
:1004D0009F908F900895E95CE1CF4F925F926F9269
:1004E0007F928F929F92AF92BF92CF92DF92EF92C4
:1004F000FF920F931F93CF936B017C01742EAC017D
:100500009B010E94AD08882399F086E191E0CF918C
:100510001F910F91FF90EF90DF90CF90BF90AF9021
:100520009F908F907F906F905F904F900C941C02E3
:1005300046015701E894B7F82FEF3FEF4FE75FE729
:10054000C501B4010E94AD0881110DC02FEF3FEF2E
:100550004FE75FE7C501B4010E94DC0618161CF4E2
:100560008AE191E0D4CF2FEF3FEF4FE75FE4C7017F
:10057000B6010E943B0818161CF48EE191E0C7CF2B
:100580002FEF3FEF4FE75FECC701B6010E94DC069B
:1005900087FDF3CF20E030E0A901C701B6010E943A
:1005A000DC0610E000E087FF0AC06DE28DE491E018
:1005B0000E94AF018C01F7FAF094F7F8F094C0E0D4
:1005C00060E070E080E09FE37C1641F020E030E0E6
:1005D00040E251E40E94E106CF5FF6CFA701960109
:1005E0000E9470062B013C010E945A074B015C01DE
:1005F0004AE00E9429027C01E00EF11ECC23C1F1E9
:10060000C501B4010E9489079B01AC01C301B2017D
:100610000E946F064B015C016EE28DE491E00E9446
:10062000AF01E80EF91EC15018F120E030E040E2C1
:1006300051E4C501B4010E9440082B013C010E9415
:100640005A074B01B12CA12C4AE0C501B4010E940C
:100650002902E80EF91EC501B4010E9489079B0119
:10066000AC01C301B2010E946F064B015C01DBCFFC
:10067000C701CF911F910F91FF90EF90DF90CF9026
:10068000BF90AF909F908F907F906F905F904F90B2
:1006900008951F920F920FB60F9211242F933F933C
:1006A0008F939F93AF93BF938091490190914A019B
:1006B000A0914B01B0914C013091480123E0230FF0
:1006C0002D3758F50196A11DB11D20934801809347
:1006D000490190934A01A0934B01B0934C01809142
:1006E000440190914501A0914601B09147010196C6
:1006F000A11DB11D8093440190934501A093460133
:10070000B0934701BF91AF919F918F913F912F91EE
:100710000F900FBE0F901F90189526E8230F02969A
:10072000A11DB11DD2CF1F920F920FB60F921124AF
:100730002F933F934F935F936F937F938F939F93E9
:10074000AF93BF93EF93FF93E0910201F091030108
:100750000995FF91EF91BF91AF919F918F917F91FB
:100760006F915F914F913F912F910F900FBE0F901E
:100770001F9018951F920F920FB60F9211242F936E
:100780003F934F935F936F937F938F939F93AF9319
:10079000BF93EF93FF93E0910001F0910101099560
:1007A000FF91EF91BF91AF919F918F917F916F9149
:1007B0005F914F913F912F910F900FBE0F901F901F
:1007C00018951F920F920FB60F9211242F933F93FB
:1007D0004F935F936F937F938F939F93AF93BF9349
:1007E000EF93FF938DE491E00E948D01FF91EF91D3
:1007F000BF91AF919F918F917F916F915F914F9139
:100800003F912F910F900FBE0F901F9018951F9240
:100810000F920FB60F9211242F938F939F93EF9304
:10082000FF93E0915D01F0915E018081E0916301B1
:10083000F091640182FD1BC09081809166018F5F01
:100840008F7320916701821741F0E0916601F0E01B
:10085000E35BFE4F958F80936601FF91EF919F912F
:100860008F912F910F900FBE0F901F901895808140
:10087000F4CF789484B5826084BD84B5816084BDF2
:1008800085B5826085BD85B5816085BD80916E002E
:10089000816080936E00109281008091810082605F
:1008A000809381008091810081608093810080919C
:1008B00080008160809380008091B100846080938B
:1008C000B1008091B00081608093B00080917A0087
:1008D000846080937A0080917A00826080937A00AD
:1008E00080917A00816080937A0080917A0080689C
:1008F00080937A001092C10060E082E00E94D300F1
:1009000060E083E00E94D30061E08BE00E94D300AE
:1009100061E08AE00E94D30061E089E00E94D30098
:1009200024E031E0309301012093000180916900BF
:10093000836080936900E89A309303012093020159
:10094000809169008C6080936900E99A309301017D
:1009500020930001809169008C7F82608093690000
:10096000E89A309303012093020180916900837F0C
:10097000886080936900E99AE0915D01F0915E01E1
:1009800082E08083E0915901F0915A011082E09158
:100990005B01F0915C018FEC808310926501E09126
:1009A0006101F091620186E08083E0915F01F09146
:1009B0006001808180618083E0915F01F09160013E
:1009C000808188608083E0915F01F0916001808187
:1009D00080688083E0915F01F091600180818F7D6C
:1009E000808361E08BE00E94870060E08AE00E94E3
:1009F000870082E291E00E941C028DE291E00E9459
:100A00001C0280E391E00E941C028DE291E00E94B2
:100A10001C0230E4432E3BE4532E3CE4632E712C45
:100A20004DEA242E40E0342E00E010E09FB7F89409
:100A3000C0904401D0904501E0904601F0904701FC
:100A400086B5A89B07C08F3F29F02FEFC21AD20AA4
:100A5000E20AF20A9FBFFE2CED2CDC2CCC24C80E3F
:100A6000D11CE11CF11C22E0CC0CDD1CEE1CFF1C97
:100A70002A95D1F7AFEFB0E0A70196010E94D40804
:100A8000A30192010E94B208CA01B9010E9489071C
:100A90006093400170934101809342019093430120
:100AA0000E9453074B01EB0161E089E00E94D300F3
:100AB000209709F0A1C060E089E00E948700809142
:100AC0003C0190913D01A0913E01B0913F01A701F1
:100AD0009601281B390B4A0B5B0BDA01C901803ADE
:100AE0009648A140B10508F47BC080913A019091ED
:100AF0003B012091380130913901821B930B909377
:100B00003B0180933A01A0903A01B0903B014AE04A
:100B1000C701B6010E94290286E391E00E941C02EF
:100B2000B501BB0C880B990B0E948B072BED3FE0A6
:100B300049EC50E40E94400820E030E543EC57E4E3
:100B40000E94E10620E030E040EC52E40E94E10621
:100B500020E034E244E759E40E94400842E00E9469
:100B60006D0286E391E00E941C0260914001709149
:100B70004101809142019091430142E00E946D0247
:100B80008DE291E00E941C02C0923C01D0923D0196
:100B9000E0923E01F0923F0180913A0190913B0139
:100BA000909339018093380120E030E04FE753E41F
:100BB0006091400170914101809142019091430107
:100BC0000E943B0887FD0CC080E090E0AFE7B3E4F3
:100BD0008093400190934101A0934201B09343015F
:100BE0000115110509F422CF0E947901882309F427
:100BF0001DCF0E9400001ACFCF3FD10511F461E054
:100C00005BCFF1018491833019F140F48130B1F070
:100C10008230C9F0C038D10594F74DCF873011F13B
:100C2000883041F18430B1F78091800080628093F8
:100C3000800090928B0080928A0041CF84B58068BA
:100C400084BD87BC3CCF84B5806284BD88BC37CF6F
:100C500080918000806880938000909289008092CB
:100C600088002DCF8091B00080688093B000809282
:100C7000B30025CF8091B00080628093B000809255
:100C8000B4001DCFEDE4F1E01382128288EE93E010
:100C9000A0E0B0E084839583A683B78388E091E0E9
:100CA0009183808385EC90E09587848784EC90E045
:100CB0009787868780EC90E0918B808B81EC90E029
:100CC000938B828B82EC90E0958B848B86EC90E00A
:100CD000978B868B118E128E138E148E089550581A
:100CE000BB27AA270E9487060C9401080E94F307DD
:100CF00038F00E94FA0720F039F49F3F19F426F4E7
:100D00000C94F0070EF4E095E7FB0C94EA07E92F4A
:100D10000E94120858F3BA176207730784079507F1
:100D200020F079F4A6F50C9434080EF4E0950B2E1F
:100D3000BA2FA02D0B01B90190010C01CA01A0012D
:100D40001124FF27591B99F0593F50F4503E68F188
:100D50001A16F040A22F232F342F4427585FF3CFC9
:100D6000469537952795A795F0405395C9F77EF49A
:100D70001F16BA0B620B730B840BBAF09150A1F0E3
:100D8000FF0FBB1F661F771F881FC2F70EC0BA0F69
:100D9000621F731F841F48F4879577956795B795F1
:100DA000F7959E3F08F0B0CF9395880F08F09927EC
:100DB000EE0F9795879508950E94C60708F481E085
:100DC00008950E94F5060C9401080E94FA0758F055
:100DD0000E94F30740F029F45F3F29F00C94EA07E2
:100DE00051110C9435080C94F0070E94120868F316
:100DF0009923B1F3552391F3951B550BBB27AA27D4
:100E000062177307840738F09F5F5F4F220F331F0D
:100E1000441FAA1FA9F335D00E2E3AF0E0E832D0D5
:100E200091505040E695001CCAF72BD0FE2F29D0D8
:100E3000660F771F881FBB1F261737074807AB07AA
:100E4000B0E809F0BB0B802DBF01FF2793585F4F1F
:100E50003AF09E3F510578F00C94EA070C9435085F
:100E60005F3FE4F3983ED4F3869577956795B79501
:100E7000F7959F5FC9F7880F911D9695879597F90C
:100E80000895E1E0660F771F881FBB1F6217730785
:100E90008407BA0720F0621B730B840BBA0BEE1F9A
:100EA00088F7E09508950E945A076894B1110C9450
:100EB000350808950E941A0888F09F5798F0B92FB6
:100EC0009927B751B0F0E1F0660F771F881F991F7F
:100ED0001AF0BA95C9F714C0B13091F00E943408E5
:100EE000B1E008950C943408672F782F8827B85FF5
:100EF00039F0B93FCCF3869577956795B395D9F7D7
:100F00003EF490958095709561957F4F8F4F9F4FE0
:100F10000895E89409C097FB3EF4909580957095EC
:100F200061957F4F8F4F9F4F9923A9F0F92F96E935
:100F3000BB279395F695879577956795B795F111AA
:100F4000F8CFFAF4BB0F11F460FF1BC06F5F7F4F47
:100F50008F4F9F4F16C0882311F096E911C0772359
:100F600021F09EE8872F762F05C0662371F096E862
:100F7000862F70E060E02AF09A95660F771F881F31
:100F8000DAF7880F9695879597F90895990F0008D5
:100F9000550FAA0BE0E8FEEF16161706E807F9074B
:100FA000C0F012161306E407F50798F0621B730BE6
:100FB000840B950B39F40A2661F0232B242B252B67
:100FC00021F408950A2609F4A140A6958FEF811D0A
:100FD000811D089597F99F6780E870E060E00895AB
:100FE0009FEF80EC089500240A9416161706180641
:100FF0000906089500240A9412161306140605061D
:101000000895092E0394000C11F4882352F0BB0FAD
:1010100040F4BF2B11F460FF04C06F5F7F4F8F4F10
:101020009F4F089557FD9058440F551F59F05F3F4B
:1010300071F04795880F97FB991F61F09F3F79F0FA
:1010400087950895121613061406551FF2CF46957C
:10105000F1DF08C0161617061806991FF1CF8695FE
:101060007105610508940895E894BB2766277727E2
:10107000CB0197F908950E94C60708F48FEF0895F1
:101080000E9453080C9401080E94F30738F00E9454
:10109000FA0720F0952311F00C94EA070C94F0075E
:1010A00011240C9435080E94120870F3959FC1F327
:1010B000950F50E0551F629FF001729FBB27F00D06
:1010C000B11D639FAA27F00DB11DAA1F649F66275B
:1010D000B00DA11D661F829F2227B00DA11D621FAA
:1010E000739FB00DA11D621F839FA00D611D221F64
:1010F000749F3327A00D611D231F849F600D211D48
:10110000822F762F6A2F11249F5750409AF0F1F0CA
:1011100088234AF0EE0FFF1FBB1F661F771F881F33
:1011200091505040A9F79E3F510580F00C94EA077A
:101130000C9435085F3FE4F3983ED4F38695779599
:101140006795B795F795E7959F5FC1F7FE2B880FD9
:10115000911D9695879597F908950E94C607880B6B
:10116000990B0895A1E21A2EAA1BBB1BFD010DC00D
:10117000AA1FBB1FEE1FFF1FA217B307E407F50747
:1011800020F0A21BB30BE40BF50B661F771F881F23
:10119000991F1A9469F760957095809590959B01B9
:1011A000AC01BD01CF0108950E94E508A59F900DF7
:1011B000B49F900DA49F800D911D11240895EE0FF2
:1011C000FF1F0590F491E02D0994A29FB001B39FF9
:1011D000C001A39F700D811D1124911DB29F700D40
:1011E000811D1124911D0895F894FFCF0E010E0169
:1011F00000000000AF010F013C01FC016D014B013B
:101200005F016E616E00696E66006F766600743B0A
:10121000772874293B70776D000D0A00303B303B16
:0412200030003B005F
:107E0000112484B714BE81FFF0D085E080938100F7
:107E100082E08093C00088E18093C10086E0809377
:107E2000C20080E18093C4008EE0C9D0259A86E02C
:107E300020E33CEF91E0309385002093840096BBD3
:107E4000B09BFECF1D9AA8958150A9F7CC24DD24C4
:107E500088248394B5E0AB2EA1E19A2EF3E0BF2EE7
:107E6000A2D0813461F49FD0082FAFD0023811F036
:107E7000013811F484E001C083E08DD089C08234E0
:107E800011F484E103C0853419F485E0A6D080C0E4
:107E9000853579F488D0E82EFF2485D0082F10E0AE
:107EA000102F00270E291F29000F111F8ED06801E7
:107EB0006FC0863521F484E090D080E0DECF843638
:107EC00009F040C070D06FD0082F6DD080E0C81688
:107ED00080E7D80618F4F601B7BEE895C0E0D1E017
:107EE00062D089930C17E1F7F0E0CF16F0E7DF06D8
:107EF00018F0F601B7BEE89568D007B600FCFDCFD4
:107F0000A601A0E0B1E02C9130E011968C91119780
:107F100090E0982F8827822B932B1296FA010C0160
:107F200087BEE89511244E5F5F4FF1E0A038BF0790
:107F300051F7F601A7BEE89507B600FCFDCF97BE46
:107F4000E89526C08437B1F42ED02DD0F82E2BD052
:107F50003CD0F601EF2C8F010F5F1F4F84911BD097
:107F6000EA94F801C1F70894C11CD11CFA94CF0C13
:107F7000D11C0EC0853739F428D08EE10CD085E9AC
:107F80000AD08FE07ACF813511F488E018D01DD067
:107F900080E101D065CF982F8091C00085FFFCCF94
:107FA0009093C60008958091C00087FFFCCF809118
:107FB000C00084FD01C0A8958091C6000895E0E648
:107FC000F0E098E1908380830895EDDF803219F02E
:107FD00088E0F5DFFFCF84E1DECF1F93182FE3DFCA
:107FE0001150E9F7F2DF1F91089580E0E8DFEE27F6
:047FF000FF270994CA
:027FFE00040479
:00000001FF
