:100000000C945D000C94DE020C94B7020C948500F5
:100010000C9485000C9485000C9485000C9485004C
:100020000C9485000C9485000C9485000C9485003C
:100030000C9485000C9485000C9485000C9485002C
:100040000C946D020C9485000C942B030C94050306
:100050000C9485000C9485000C9485000C9485000C
:100060000C9485000C9485000000000024002700FB
:100070002A0000000000250028002B0004040404CE
:100080000404040402020202020203030303030342
:10009000010204081020408001020408102001021F
:1000A00004081020000000080002010000030407FB
:1000B00000000000000000004D0511241FBECFEF1E
:1000C000D8E0DEBFCDBF11E0A0E0B1E0E0ECFFE0A2
:1000D00002C005900D92A233B107D9F721E0A2E347
:1000E000B1E001C01D92A03EB207E1F710E0CDE5FE
:1000F000D0E004C02197FE010E94D807CC35D1077B
:10010000C9F70E945D030C94DE070C94000090E098
:10011000FC01EC55FF4F2491FC01E057FF4F349157
:10012000FC01E458FF4FE491EE23C9F0222339F09B
:10013000233001F1A8F4213019F1223029F1F0E047
:10014000EE0FFF1FEE58FF4FA591B4918FB7F894B3
:10015000EC91611126C030953E233C938FBF0895EA
:100160002730A9F02830C9F0243049F78091800069
:100170008F7D03C0809180008F7780938000DFCFD8
:1001800084B58F7784BDDBCF84B58F7DFBCF809125
:10019000B0008F778093B000D2CF8091B0008F7D78
:1001A000F9CF3E2BDACFCF93DF9390E0FC01E057FD
:1001B000FF4F249184589F4FFC0184918823D1F0F4
:1001C00090E0880F991FFC01E859FF4FA591B49169
:1001D000FC01EE58FF4FC591D49161110EC09FB73D
:1001E000F8948C91E22FE0958E238C932881E22362
:1001F000E8839FBFDF91CF9108958FB7F894EC917A
:10020000E22BEC938FBFF6CF8091340190913501B2
:100210000196909335018093340108950895AF922B
:10022000BF92CF92DF92EF92FF920F931F93CF93E3
:10023000DF936C017B018B01040F151FEB015E0145
:10024000AE18BF08C017D10759F06991D601ED91DA
:10025000FC910190F081E02DC6010995892B79F779
:10026000C501DF91CF911F910F91FF90EF90DF902B
:10027000CF90BF90AF900895FC01538D448D252FF2
:1002800030E0842F90E0821B930B541710F0CF9630
:10029000089501970895FC01918D828D981761F062
:1002A000A28DAE0FBF2FB11D5D968C91928D9F5F79
:1002B0009F73928F90E008958FEF9FEF0895FC0158
:1002C000918D828D981731F0828DE80FF11D858D0B
:1002D00090E008958FEF9FEF0895FC01918D228D9E
:1002E000892F90E0805C9F4F821B91098F73992723
:1002F000089583E491E00E946D0121E0892B09F4C7
:1003000020E0822F089580E090E0892B29F00E9460
:10031000790181110C9400000895FC01A48DA80FAF
:10032000B92FB11DA35ABF4F2C91848D90E0019637
:100330008F739927848FA689B7892C93A089B18957
:100340008C91837080648C93938D848D981306C0F8
:100350000288F389E02D80818F7D80830895EF925C
:10036000FF920F931F93CF93DF93EC0181E0888F6F
:100370009B8D8C8D98131AC0E889F989808185FF3F
:1003800015C09FB7F894EE89FF896083E889F989E1
:1003900080818370806480839FBF81E090E0DF91E3
:1003A000CF911F910F91FF90EF900895F62E0B8D36
:1003B00010E00F5F1F4F0F731127E02E8C8D8E11F1
:1003C0000CC00FB607FCFACFE889F989808185FF58
:1003D000F5CFCE010E948D01F1CFEB8DEC0FFD2FFB
:1003E000F11DE35AFF4FF0829FB7F8940B8FEA8913
:1003F000FB8980818062CFCFCF93DF93EC01888D22
:100400008823B9F0AA89BB89E889F9898C9185FD8F
:1004100003C0808186FD0DC00FB607FCF7CF8C911D
:1004200085FFF2CF808185FFEDCFCE010E948D0147
:10043000E9CFDF91CF910895FC0101900020E9F709
:100440003197AF01481B590BBC0183E491E00C9438
:100450000F018F929F92AF92BF920F931F93CF93F2
:10046000DF93CDB7DEB7A1970FB6F894DEBF0FBE0E
:10047000CDBF19A2423008F44AE08E010F5D1F4F34
:10048000842E912CB12CA12CA50194010E94B607B9
:10049000E62FB901CA01EA30F4F4E05DD801EE9329
:1004A0008D01232B242B252B79F790E080E01097EA
:1004B00019F0CD010E941C02A1960FB6F894DEBF80
:1004C0000FBECDBFDF91CF911F910F91BF90AF9025
:1004D0009F908F900895E95CE1CF1F920F920FB625
:1004E0000F9211242F933F938F939F93AF93BF93BA
:1004F00080913F0190914001A0914101B091420152
:1005000030913E0123E0230F2D3758F50196A11DB0
:10051000B11D20933E0180933F0190934001A09331
:100520004101B093420180913A0190913B01A09129
:100530003C01B0913D010196A11DB11D80933A018E
:1005400090933B01A0933C01B0933D01BF91AF91CB
:100550009F918F913F912F910F900FBE0F901F9001
:10056000189526E8230F0296A11DB11DD2CF1F9228
:100570000F920FB60F9211242F933F934F935F93D7
:100580006F937F938F939F93AF93BF93EF93FF935B
:10059000E0910201F09103010995FF91EF91BF9164
:1005A000AF919F918F917F916F915F914F913F910B
:1005B0002F910F900FBE0F901F9018951F920F92C2
:1005C0000FB60F9211242F933F934F935F936F9326
:1005D0007F938F939F93AF93BF93EF93FF93E0919C
:1005E0000001F09101010995FF91EF91BF91AF9149
:1005F0009F918F917F916F915F914F913F912F913B
:100600000F900FBE0F901F9018951F920F920FB66C
:100610000F9211242F933F934F935F936F937F9388
:100620008F939F93AF93BF93EF93FF9383E491E0F6
:100630000E948D01FF91EF91BF91AF919F918F919A
:100640007F916F915F914F913F912F910F900FBECE
:100650000F901F9018951F920F920FB60F921124B2
:100660002F938F939F93EF93FF93E0915301F0911A
:1006700054018081E0915901F0915A0182FD1BC023
:10068000908180915C018F5F8F7320915D01821753
:1006900041F0E0915C01F0E0ED5BFE4F958F8093BF
:1006A0005C01FF91EF919F918F912F910F900FBE61
:1006B0000F901F9018958081F4CFCF93DF9300D0D7
:1006C00000D0CDB7DEB7789484B5826084BD84B5A0
:1006D000816084BD85B5826085BD85B5816085BD3D
:1006E00080916E00816080936E00109281008091F5
:1006F000810082608093810080918100816080937D
:100700008100809180008160809380008091B100A1
:1007100084608093B1008091B00081608093B000CC
:1007200080917A00846080937A0080917A00826060
:1007300080937A0080917A00816080937A00809122
:100740007A00806880937A001092C10060E082E0B5
:100750000E94D30060E083E00E94D30061E089E062
:100760000E94D30061E088E00E94D30024E031E0E1
:100770003093010120930001809169008360809390
:100780006900E89A30930301209302018091690087
:100790008C6080936900E99A3093010120930001F5
:1007A000809169008C7F826080936900E89A309321
:1007B00003012093020180916900837F8860809308
:1007C0006900E99AE0915301F091540182E080833D
:1007D000E0914F01F09150011082E0915101F091B0
:1007E00052018FEC808310925B01E0915701F091F0
:1007F000580186E08083E0915501F0915601808197
:1008000080618083E0915501F0915601808188607C
:100810008083E0915501F09156018081806880834A
:10082000E0915501F091560180818F7D808361E0D8
:1008300089E00E94870060E088E00E94870086E1EE
:1008400091E00E941C028DE191E00E941C0280E276
:1008500091E00E941C028DE191E00E941C028FB782
:10086000F89440903F015090400160904101709099
:1008700042018FBF8091360190913701A0913801DC
:10088000B0913901A3019201281B390B4A0B5B0B74
:10089000DA01C90184369105A105B10508F457C0F4
:1008A00080913401909135012091320130913301D2
:1008B000821B930B90933501809334016091340136
:1008C00070913501072E000C880B990B0E948F0642
:1008D00020E030E048EC52E40E94EC0520E030E0FB
:1008E00040EC52E40E94EC0520E030E04AE754E49A
:1008F0000E9444076B017C014B015C014AE0C3018B
:10090000B2010E94290284E291E00E941C02A70128
:100910009601C701B6010E94B107882329F186E23A
:1009200091E00E941C028DE191E00E941C02409225
:1009300036015092370160923801709239018091EE
:100940003401909135019093330180933201A0E0FE
:10095000B0E0AB2B09F483CF0E947901882309F41E
:100960007ECF0E9400007BCFD701C601BF7789836D
:100970009A83AB83BC832FEF3FEF4FE75FE7BC0168
:10098000CD010E94B10781110FC02FEF3FEF4FE75C
:100990005FE769817A818B819C810E94E705181647
:1009A0001CF48AE291E0BDCF2FEF3FEF4FE75FE409
:1009B000C701B6010E943F0718161CF48EE291E0B1
:1009C000B0CF2FEF3FEF4FE75FECC701B6010E94BA
:1009D000E70587FDF3CF20E030E0A901C701B601AC
:1009E0000E94E70587FF0BC06DE283E491E00E945F
:1009F000AF0146015701B7FAB094B7F8B0942AE0B6
:100A000037ED43EA5BE3C501B4010E947B054B016E
:100A10005C010E945E066B017C010E948D069B01B9
:100A2000AC01C501B4010E947A054B015C014AE0AA
:100A3000C701B6010E9429026EE283E491E00E94A0
:100A4000AF0120E030E040E251E4C501B4010E9472
:100A500044074B015C010E945E066B01F12CE12C06
:100A60004AE0C701B6010E942902C701B6010E94EF
:100A70008D069B01AC01C501B4010E947A0520E0FE
:100A800030E040E251E40E9444070E945E0690E09C
:100A900080E04AE00E94290246CFE3E4F1E01382BD
:100AA000128288EE93E0A0E0B0E084839583A68371
:100AB000B78388E091E09183808385EC90E095870F
:100AC000848784EC90E09787868780EC90E0918B18
:100AD000808B81EC90E0938B828B82EC90E0958B05
:100AE000848B86EC90E0978B868B118E128E138E02
:100AF000148E08955058BB27AA270E9492050C9483
:100B000005070E94F70638F00E94FE0620F039F42F
:100B10009F3F19F426F40C94F4060EF4E095E7FBDD
:100B20000C94EE06E92F0E94160758F3BA176207D5
:100B300073078407950720F079F4A6F50C9438071D
:100B40000EF4E0950B2EBA2FA02D0B01B9019001E8
:100B50000C01CA01A0011124FF27591B99F0593F2C
:100B600050F4503E68F11A16F040A22F232F342F74
:100B70004427585FF3CF469537952795A795F040C2
:100B80005395C9F77EF41F16BA0B620B730B840BD7
:100B9000BAF09150A1F0FF0FBB1F661F771F881F8F
:100BA000C2F70EC0BA0F621F731F841F48F48795E7
:100BB00077956795B795F7959E3F08F0B0CF9395D9
:100BC000880F08F09927EE0F9795879508950E9452
:100BD000CA0608F481E008950E9400060C940507F7
:100BE0000E94FE0658F00E94F70640F029F45F3F8D
:100BF00029F00C94EE0651110C9439070C94F4066C
:100C00000E94160768F39923B1F3552391F3951BBE
:100C1000550BBB27AA2762177307840738F09F5F1D
:100C20005F4F220F331F441FAA1FA9F335D00E2E8A
:100C30003AF0E0E832D091505040E695001CCAF7F7
:100C40002BD0FE2F29D0660F771F881FBB1F2617BA
:100C500037074807AB07B0E809F0BB0B802DBF0191
:100C6000FF2793585F4F3AF09E3F510578F00C9460
:100C7000EE060C9439075F3FE4F3983ED4F3869573
:100C800077956795B795F7959F5FC9F7880F911D81
:100C90009695879597F90895E1E0660F771F881F6D
:100CA000BB1F621773078407BA0720F0621B730B20
:100CB000840BBA0BEE1F88F7E09508950E941E077B
:100CC00088F09F5798F0B92F9927B751B0F0E1F00D
:100CD000660F771F881F991F1AF0BA95C9F714C0BD
:100CE000B13091F00E943807B1E008950C943807B4
:100CF000672F782F8827B85F39F0B93FCCF38695F6
:100D000077956795B395D9F73EF490958095709552
:100D100061957F4F8F4F9F4F0895E89409C097FBCF
:100D20003EF490958095709561957F4F8F4F9F4FC2
:100D30009923A9F0F92F96E9BB279395F695879506
:100D400077956795B795F111F8CFFAF4BB0F11F4C9
:100D500060FF1BC06F5F7F4F8F4F9F4F16C0882370
:100D600011F096E911C0772321F09EE8872F762FA6
:100D700005C0662371F096E8862F70E060E02AF0E7
:100D80009A95660F771F881FDAF7880F96958795D3
:100D900097F90895990F0008550FAA0BE0E8FEEFA8
:100DA00016161706E807F907C0F012161306E4072F
:100DB000F50798F0621B730B840B950B39F40A2628
:100DC00061F0232B242B252B21F408950A2609F406
:100DD000A140A6958FEF811D811D089597F99F670A
:100DE00080E870E060E008959FEF80EC08950024B3
:100DF0000A941616170618060906089500240A9480
:100E000012161306140605060895092E0394000C05
:100E100011F4882352F0BB0F40F4BF2B11F460FF94
:100E200004C06F5F7F4F8F4F9F4F089557FD9058BD
:100E3000440F551F59F05F3F71F04795880F97FB9E
:100E4000991F61F09F3F79F0879508951216130658
:100E50001406551FF2CF4695F1DF08C01616170687
:100E60001806991FF1CF86957105610508940895BC
:100E7000E894BB2766277727CB0197F908950E944E
:100E8000CA0608F48FEF08950E9457070C940507CF
:100E90000E94F70638F00E94FE0620F0952311F01C
:100EA0000C94EE060C94F40611240C9439070E945D
:100EB000160770F3959FC1F3950F50E0551F629F81
:100EC000F001729FBB27F00DB11D639FAA27F00DA3
:100ED000B11DAA1F649F6627B00DA11D661F829FCA
:100EE0002227B00DA11D621F739FB00DA11D621FAF
:100EF000839FA00D611D221F749F3327A00D611DCC
:100F0000231F849F600D211D822F762F6A2F1124AD
:100F10009F5750409AF0F1F088234AF0EE0FFF1FE0
:100F2000BB1F661F771F881F91505040A9F79E3F37
:100F3000510580F00C94EE060C9439075F3FE4F302
:100F4000983ED4F3869577956795B795F795E7958D
:100F50009F5FC1F7FE2B880F911D9695879597F996
:100F600008950E94CA06880B990B0895A1E21A2ED3
:100F7000AA1BBB1BFD010DC0AA1FBB1FEE1FFF1F3D
:100F8000A217B307E407F50720F0A21BB30BE40B8D
:100F9000F50B661F771F881F991F1A9469F76095D4
:100FA0007095809590959B01AC01BD01CF0108958E
:100FB000EE0FFF1F0590F491E02D0994F894FFCFF8
:100FC0000E010E0100000000AF010F013C01FC0109
:100FD0006D014B015F01743B77287429000D0A00F5
:100FE000303B30003B006E616E00696E66006F76CC
:020FF000660099
:00000001FF
