:020000040000FA
:100000000C9462000C948A000C948A000C948A0070
:100010000C948A000C948A000C948A000C948A0038
:100020000C948A000C948A000C948A000C948A0028
:100030000C948A000C948A000C948A000C948A0018
:100040000C94D1030C948A000C949F030C947903B4
:100050000C948A000C948A000C948A000C948A00F8
:100060000C948A000C948A000000000023002600F3
:10007000290000000000240027002A0000000000E2
:10008000250028002B0004040404040404040202D4
:100090000202020203030303030301020408102007
:1000A0004080010204081020010204081020000012
:1000B0000008000201000003040700000000000027
:1000C00000007C0711241FBECFEFD8E0DEBFCDBFFC
:1000D00011E0A0E0B1E0E6E4F6E102C005900D9287
:1000E000A234B107D9F722E0A2E4B1E001C01D9229
:1000F000A236B207E1F710E0C2E6D0E004C02197D3
:10010000FE010E941B0BC136D107C9F70E94600493
:100110000C94210B0C940000AF92BF92CF92DF920F
:10012000EF92FF920F931F93CF93DF936C017B01AC
:100130008B01040F151FEB015E01AE18BF08C0173D
:10014000D10759F06991D601ED91FC910190F081B0
:10015000E02DC6010995892B79F7C501DF91CF9173
:100160001F910F91FF90EF90DF90CF90BF90AF90D5
:100170000895FC01538D448D252F30E0842F90E0AD
:10018000821B930B541710F0CF9608950197089592
:10019000FC01918D828D981761F0A28DAE0FBF2F5B
:1001A000B11D5D968C91928D9F5F9F73928F90E0B1
:1001B00008958FEF9FEF0895FC01918D828D981720
:1001C00031F0828DE80FF11D858D90E008958FEF5D
:1001D0009FEF0895FC01918D228D892F90E0805C26
:1001E0009F4F821B91098F739927089585EC91E0A9
:1001F0000E94EA0021E0892B09F420E0822F089573
:1002000080E090E0892B29F00E94F60081110C9487
:1002100000000895FC01A48DA80FB92FB11DA35AA9
:10022000BF4F2C91848D90E001968F739927848F16
:10023000A689B7892C93A089B1898C918370806439
:100240008C93938D848D981306C00288F389E02DDA
:1002500080818F7D80830895EF92FF920F931F938B
:10026000CF93DF93EC0181E0888F9B8D8C8D981369
:100270001AC0E889F989808185FF15C09FB7F89475
:10028000EE89FF896083E889F989808183708064C1
:1002900080839FBF81E090E0DF91CF911F910F910C
:1002A000FF90EF900895F62E0B8D10E00F5F1F4F1B
:1002B0000F731127E02E8C8D8E110CC00FB607FC2A
:1002C000FACFE889F989808185FFF5CFCE010E94B8
:1002D0000A01F1CFEB8DEC0FFD2FF11DE35AFF4F1B
:1002E000F0829FB7F8940B8FEA89FB898081806246
:1002F000CFCFCF93DF93EC01888D8823B9F0AA8903
:10030000BB89E889F9898C9185FD03C0808186FDD0
:100310000DC00FB607FCF7CF8C9185FFF2CF80811F
:1003200085FFEDCFCE010E940A01E9CFDF91CF9189
:10033000089590E0FC01E255FF4F2491FC01E65640
:10034000FF4F3491FC01EA57FF4FE491EE23C9F0CF
:10035000222339F0233001F1A8F4213019F12230A1
:1003600029F1F0E0EE0FFF1FE458FF4FA591B49183
:100370008FB7F894EC91611126C030953E233C93E1
:100380008FBF08952730A9F02830C9F0243049F7ED
:10039000809180008F7D03C0809180008F77809353
:1003A0008000DFCF84B58F7784BDDBCF84B58F7DB0
:1003B000FBCF8091B0008F778093B000D2CF809137
:1003C000B0008F7DF9CF3E2BDACFCF93DF9390E053
:1003D000FC01E656FF4F24918A579F4FFC01849100
:1003E0008823D1F090E0880F991FFC01EE58FF4F51
:1003F000A591B491FC01E458FF4FC591D4916111CE
:100400000EC09FB7F8948C91E22FE0958E238C93C9
:100410002881E223E8839FBFDF91CF9108958FB7B2
:10042000F894EC91E22BEC938FBFF6CFE82FF0E03D
:10043000E255FF4FE491E33011F138F4E130A9F0D7
:10044000E230C1F061E00C949901E73011F1E8303D
:1004500041F1E430B9F780918000806280938000A0
:1004600070938B0060938A00089584B5806884BD82
:1004700067BD089584B5806284BD68BD089580918C
:10048000800080688093800070938900609388006A
:1004900008958091B00080688093B0006093B300AD
:1004A00008958091B00080628093B0006093B400A2
:1004B00008953FB7F8948091470190914801A09129
:1004C0004901B0914A0126B5A89B05C02F3F19F0FC
:1004D0000196A11DB11D3FBFBA2FA92F982F8827C4
:1004E000BC01CD01620F711D811D911D42E0660F9F
:1004F000771F881F991F4A95D1F708958F929F9271
:10050000AF92BF92CF92DF92EF92FF924B015C01CC
:100510000E9459026B017C010E9459026C197D09ED
:100520008E099F09683E734081059105A8F321E07B
:10053000821A9108A108B10888EEC80E83E0D81E7F
:10054000E11CF11C81149104A104B10429F7FF906E
:10055000EF90DF90CF90BF90AF909F908F900895D5
:10056000FC0101900020E9F73197AF01481B590BBE
:10057000BC0185EC91E00C948C008F929F92AF921D
:10058000BF920F931F93CF93DF93CDB7DEB7A197A1
:100590000FB6F894DEBF0FBECDBF19A2423008F4EB
:1005A0004AE08E010F5D1F4F842E912CB12CA12C9F
:1005B000A50194010E947F08E62FB901CA01EA3023
:1005C000F4F4E05DD801EE938D01232B242B252B31
:1005D00079F790E080E0109719F0CD010E94B00209
:1005E000A1960FB6F894DEBF0FBECDBFDF91CF91BD
:1005F0001F910F91BF90AF909F908F900895E95CED
:10060000E1CFCF92DF92EF92FF92CF93DF936C0115
:10061000990FEE08FF08F7FE19C06DE285EC91E036
:100620000E942C01EC0166277727CB016C197D090C
:100630008E099F094AE00E94BD028C0F9D1FDF9129
:10064000CF91FF90EF90DF90CF9008954AE0C701DF
:10065000B601DF91CF91FF90EF90DF90CF900C9497
:10066000BD020F931F9360E08BE00E94990183E02D
:1006700090E00197F1F761E08BE00E94990183E23D
:1006800090E00197F1F760E08BE00E949901E6EAC3
:10069000F0E06491E2E9F0E0E491F0E0EE0FFF1F9A
:1006A000E859FF4F8591949100E412E42FE030E087
:1006B000462F0E941B04611571058105910529F0E3
:1006C0006F5F7F4F8F4F9F4F9F700E94CC0926E92D
:1006D00033E44BE05DE30E94810A20E030E040E03B
:1006E0005FE30E94810A0E949409CB011F910F9140
:1006F00008951F920F920FB60F9211242F933F93DC
:100700004F935F936F937F938F939F93AF93BF9319
:10071000EF93FF9385EC91E00E940A01FF91EF9126
:10072000BF91AF919F918F917F916F915F914F9109
:100730003F912F910F900FBE0F901F9018951F9211
:100740000F920FB60F9211242F938F939F93EF93D5
:10075000FF93E091D501F091D6018081E091DB011A
:10076000F091DC0182FD1BC090818091DE018F5FE2
:100770008F732091DF01821741F0E091DE01F0E0FC
:10078000EB53FE4F958F8093DE01FF91EF919F9188
:100790008F912F910F900FBE0F901F901895808111
:1007A000F4CF1F920F920FB60F9211242F933F9305
:1007B0008F939F93AF93BF93809143019091440196
:1007C000A0914501B09146013091420123E0230FF1
:1007D0002D3758F50196A11DB11D2093420180933C
:1007E000430190934401A0934501B0934601809149
:1007F000470190914801A0914901B0914A010196A9
:10080000A11DB11D8093470190934801A093490118
:10081000B0934A01BF91AF919F918F913F912F91DA
:100820000F900FBE0F901F90189526E8230F029689
:10083000A11DB11DD2CFCF92DF92EF92FF920F9305
:100840001F93E82FF92F05C0015011092109310923
:1008500061F1908196239417B9F305C001501109F5
:100860002109310911F1908196239413F7CFC12CFE
:10087000D12CE12CF12C0AC08FEFC81AD80AE80A53
:10088000F80A0C151D052E053F0579F08081862399
:10089000841791F36C2D7D2D8E2D9F2D1F910F911F
:1008A000FF90EF90DF90CF90089560E070E080E0DF
:1008B00090E01F910F91FF90EF90DF90CF900895FF
:1008C000789484B5826084BD84B5816084BD85B52B
:1008D000826085BD85B5816085BD80916E00816037
:1008E00080936E00109281008091810082608093DD
:1008F00081008091810081608093810080918000DF
:100900008160809380008091B10084608093B10009
:100910008091B00081608093B00080917A00846003
:1009200080937A0080917A00826080937A0080912F
:100930007A00816080937A0080917A008068809349
:100940007A001092C10061E08BE00E94E50160E056
:100950008CE00E94E50161E085E00E94E50161E034
:100960008AE00E94E50161E086E00E94E50161E025
:1009700087E00E94E50161E088E00E94E50161E016
:1009800089E00E94E501E091D501F091D60182E075
:100990008083E091D101F091D2011082E091D301E6
:1009A000F091D4018FEC80831092DD01E091D901A8
:1009B000F091DA0186E08083E091D701F091D801CF
:1009C000808180618083E091D701F091D80180819E
:1009D00088608083E091D701F091D80180818068A0
:1009E0008083E091D701F091D80180818F7D808351
:1009F00080E480937C0080917A00806480937A0008
:100A000080917A0086FDFCCF60917800709179002A
:100A1000072E000C880B990B611571058105910556
:100A200011F00E9444080E94310370E060E08530BC
:100A3000910574F061E070E08A3091054CF069E056
:100A400070E0883C910524F464E170E00E94F30AB0
:100A50007093C4016093C3010E94F50728EE33E050
:100A600040E050E00E944D080E94CC0920E030E0B8
:100A70004AE754E40E9422092AE939E949E95EE398
:100A80000E941D0987FDA1C02090C3013090C401C0
:100A90008CE0829DF001839DF00D1124E55BFE4FFB
:100AA00001E010E0248135814681578160817181A8
:100AB000828193810E941D0987FF00E0E8019CE08C
:100AC000929DF001939DF00D1124E55BFE4FD10145
:100AD000AA0FBB1FA20DB31DA00FB11FAA0FBB1FF2
:100AE000AA0FBB1FA55BBE4F2D913D914D915C910F
:100AF00060857185828593850E947C0A18160CF4A6
:100B000098C02090C3013090C401209709F067C0BD
:100B100061E085E00E94E50168EC70E085E00E94FC
:100B2000160261E08AE00E94E50168EC70E08AE06C
:100B30000E94160261E086E00E94990160E087E071
:100B40000E94990161E088E00E94990160E089E0DB
:100B50000E94990164EF71E080E090E00E947E02C3
:100B600060E086E00E94990160E087E00E949901C0
:100B700060E088E00E94990160E089E00E949901AC
:100B80000E943103853091050CF475C08A309105BF
:100B90000CF411C1883C91050CF0A8C164E170E02F
:100BA0000E94F30A8B016115710509F466C0209754
:100BB00009F003C1663071050CF4FFC0C12CD12CC3
:100BC00030E2E32E31E4F32E5EC00E94F50723E00D
:100BD00030E040E050E00E944D08EB0192CFC13080
:100BE000D10549F561E085E00E94E50164EB70E024
:100BF00085E00E94160261E08AE00E94E50164EB54
:100C000070E08AE00E94160260E086E00E9499018E
:100C100061E087E00E94990161E088E00E9499010B
:100C200060E089E00E94990160E971E080E090E075
:100C300095CFC2E0D0E061E085E00E94E50164EB81
:100C400070E085E00E94160261E08AE00E94E50102
:100C500064EB70E08AE00E94160261E086E00E9488
:100C6000990160E087E00E94990160E088E00E94BD
:100C7000990161E0D6CF10E000E0C12CD12C48EC06
:100C8000E42E42ECF42E8CE0809FF001819FF00D69
:100C90001124E55BFE4F80809180A280B380548058
:100CA0006580768047809401A501652D762D872D7E
:100CB000942D0E947C0A181624F4852C962CA72CBF
:100CC000B42C9CE0909FF001919FF00D1124E55B06
:100CD000FE4F7084018512856384272D302F412FAC
:100CE000562DB401C5010E941D0987FF04C0872C41
:100CF000902EA12EB62C8101000F111F020D131D85
:100D00000C0F1D1F000F111F000F111F055B1E4F41
:100D1000F801408051806280738026E636E646E620
:100D20005FE3B401C5010E94810AA70196010E94F8
:100D3000B108A30192010E94B0082DEC3CEC4CE4F8
:100D40005EE30E94810AA30192010E94B108F801AA
:100D5000608371838283938386E191E00E94B00275
:100D6000C1010E9401038EE191E00E94B002CE0118
:100D70000E94010388E291E00E94B002A70196015F
:100D8000C701B6010E94EE0A8823F1F082E391E0E8
:100D90000E94B0028EE391E00E94B00280E090E0F9
:100DA000892B09F440CE0E94F600882309F43BCE3B
:100DB0000E94000038CE01E010E0C12CD12C80E868
:100DC000E82E8FEBF82E5FCF46015701E894B7F875
:100DD0002FEF3FEF4FE75FE7C501B4010E94EE0A36
:100DE00081110DC02FEF3FEF4FE75FE7C501B40161
:100DF0000E941D0918161CF486E391E0C9CF2FEF5D
:100E00003FEF4FE75FE4C701B6010E947C0A181666
:100E10001CF48AE391E0BCCF2FEF3FEF4FE75FEC8C
:100E2000C701B6010E941D0987FDF3CF20E030E025
:100E3000A901C701B6010E941D0987FF09C06DE223
:100E400085EC91E00E942C01F7FAF094F7F8F09409
:100E50002AE037ED43EA5BE3C701B6010E94B1081F
:100E60004B015C010E949B096B017C010E94CA0935
:100E70009B01AC01C501B4010E94B0084B015C01AB
:100E80004AE0C701B6010E94BD026EE285EC91E026
:100E90000E942C0120E030E040E251E4C501B401A1
:100EA0000E94810A4B015C010E949B096B01F12C9D
:100EB000E12C4AE0C701B6010E94BD02C701B6019C
:100EC0000E94CA099B01AC01C501B4010E94B0088F
:100ED00020E030E040E251E40E94810A0E949B0938
:100EE00090E080E04AE00E94BD0254CF09E010E0AB
:100EF000209709F463CE61CFE5ECF1E01382128212
:100F000088EE93E0A0E0B0E084839583A683B78366
:100F100088E091E09183808385EC90E095878487D9
:100F200084EC90E09787868780EC90E0918B808BB3
:100F300081EC90E0938B828B82EC90E0958B848B9C
:100F400086EC90E0978B868B118E128E138E148E0A
:100F500008958F929F92AF92BF92CF92DF92EF92BD
:100F6000FF92CF93DF93EC01688179818A819B8125
:100F7000611571058105910521F464E279ED8BE538
:100F800097E02DE133EF41E050E00E944D08490128
:100F90005A019B01AC01A7EAB1E40E946C086B0105
:100FA0007C01ACEEB4EFA50194010E947A08C60E54
:100FB000D71EE81EF91EF7FE06C081E0C81AD10848
:100FC000E10880E8F80AC882D982EA82FB82C70178
:100FD000B6019F77DF91CF91FF90EF90DF90CF9098
:100FE000BF90AF909F908F9008958F929F92AF92F5
:100FF000BF92CF92DF92EF92FF92609100017091C9
:101000000101809102019091030161157105810533
:10101000910521F464E279ED8BE597E02DE133EF62
:1010200041E050E00E944D0849015A019B01AC018A
:10103000A7EAB1E40E946C086B017C01ACEEB4EF4E
:10104000A50194010E947A08C60ED71EE81EF91E5B
:10105000F7FE06C081E0C81AD108E10880E8F80A66
:10106000C0920001D0920101E0920201F0920301CE
:10107000C701B6019F77FF90EF90DF90CF90BF90B0
:10108000AF909F908F90089560930001709301013D
:1010900080930201909303010895052E97FB1EF49F
:1010A00000940E94640857FD07D00E947F0807FC47
:1010B00003D04EF40C9464085095409530952195DA
:1010C0003F4F4F4F5F4F0895909580957095619574
:1010D0007F4F8F4F9F4F08950E94A108A59F900DAD
:1010E000B49F900DA49F800D911D11240895B7FF0A
:1010F0000C946C080E946C08821B930B0895A1E26B
:101100001A2EAA1BBB1BFD010DC0AA1FBB1FEE1F81
:10111000FF1FA217B307E407F50720F0A21BB30BCC
:10112000E40BF50B661F771F881F991F1A9469F748
:1011300060957095809590959B01AC01BD01CF01A4
:101140000895A29FB001B39FC001A39F700D811DA0
:101150001124911DB29F700D811D1124911D0895C0
:101160005058BB27AA270E94C8080C94420A0E9424
:10117000340A38F00E943B0A20F039F49F3F19F4FA
:1011800026F40C94310A0EF4E095E7FB0C942B0A3C
:10119000E92F0E94530A58F3BA17620773078407AE
:1011A000950720F079F4A6F50C94750A0EF4E095F5
:1011B0000B2EBA2FA02D0B01B90190010C01CA0111
:1011C000A0011124FF27591B99F0593F50F4503EBC
:1011D00068F11A16F040A22F232F342F4427585FAE
:1011E000F3CF469537952795A795F0405395C9F7C6
:1011F0007EF41F16BA0B620B730B840BBAF091507E
:10120000A1F0FF0FBB1F661F771F881FC2F70EC01C
:10121000BA0F621F731F841F48F4879577956795EF
:10122000B795F7959E3F08F0B0CF9395880F08F0DB
:101230009927EE0F9795879508950E94070A08F45D
:1012400081E008950E9436090C94420A0E943B0AEC
:1012500058F00E94340A40F029F45F3F29F00C94C2
:101260002B0A51110C94760A0C94310A0E94530AED
:1012700068F39923B1F3552391F3951B550BBB27C5
:10128000AA2762177307840738F09F5F5F4F220F0A
:10129000331F441FAA1FA9F335D00E2E3AF0E0E801
:1012A00032D091505040E695001CCAF72BD0FE2F4B
:1012B00029D0660F771F881FBB1F261737074807DF
:1012C000AB07B0E809F0BB0B802DBF01FF27935897
:1012D0005F4F3AF09E3F510578F00C942B0A0C9426
:1012E000760A5F3FE4F3983ED4F386957795679549
:1012F000B795F7959F5FC9F7880F911D96958795CC
:1013000097F90895E1E0660F771F881FBB1F6217EA
:1013100073078407BA0720F0621B730B840BBA0BA8
:10132000EE1F88F7E09508950E949B096894B1111B
:101330000C94760A08950E945B0A88F09F5798F0F3
:10134000B92F9927B751B0F0E1F0660F771F881FCA
:10135000991F1AF0BA95C9F714C0B13091F00E94E4
:10136000750AB1E008950C94750A672F782F8827C5
:10137000B85F39F0B93FCCF3869577956795B3950B
:10138000D9F73EF490958095709561957F4F8F4F7A
:101390009F4F0895E89409C097FB3EF4909580957F
:1013A000709561957F4F8F4F9F4F9923A9F0F92F2B
:1013B00096E9BB279395F695879577956795B795A9
:1013C000F111F8CFFAF4BB0F11F460FF1BC06F5F8F
:1013D0007F4F8F4F9F4F16C0882311F096E911C0A1
:1013E000772321F09EE8872F762F05C0662371F0C2
:1013F00096E8862F70E060E02AF09A95660F771FD6
:10140000881FDAF7880F9695879597F90895990FB1
:101410000008550FAA0BE0E8FEEF16161706E807BE
:10142000F907C0F012161306E407F50798F0621BDF
:10143000730B840B950B39F40A2661F0232B242BB4
:10144000252B21F408950A2609F4A140A6958FEFD3
:10145000811D811D089597F99F6780E870E060E025
:1014600008959FEF80EC089500240A94161617063D
:1014700018060906089500240A9412161306140685
:1014800005060895092E0394000C11F4882352F0E8
:10149000BB0F40F4BF2B11F460FF04C06F5F7F4FA0
:1014A0008F4F9F4F089557FD9058440F551F59F087
:1014B0005F3F71F04795880F97FB991F61F09F3F41
:1014C00079F087950895121613061406551FF2CF6A
:1014D0004695F1DF08C0161617061806991FF1CFBA
:1014E00086957105610508940895E894BB276627E1
:1014F0007727CB0197F908950E94070A08F48FEF28
:1015000008950E94940A0C94420A0E94340A38F00A
:101510000E943B0A20F0952311F00C942B0A0C94A6
:10152000310A11240C94760A0E94530A70F3959F95
:10153000C1F3950F50E0551F629FF001729FBB27CA
:10154000F00DB11D639FAA27F00DB11DAA1F649F66
:101550006627B00DA11D661F829F2227B00DA11D19
:10156000621F739FB00DA11D621F839FA00D611D9F
:10157000221F749F3327A00D611D231F849F600DC0
:10158000211D822F762F6A2F11249F5750409AF0E9
:10159000F1F088234AF0EE0FFF1FBB1F661F771F75
:1015A000881F91505040A9F79E3F510580F00C9440
:1015B0002B0A0C94760A5F3FE4F3983ED4F38695A9
:1015C00077956795B795F795E7959F5FC1F7FE2BE0
:1015D000880F911D9695879597F908950E94070A9F
:1015E000880B990B089597FB072E16F4009407D0EB
:1015F00077FD09D00E94070B07FC05D03EF49095BB
:1016000081959F4F0895709561957F4F0895AA1B0E
:10161000BB1B51E107C0AA1FBB1FA617B70710F0DD
:10162000A61BB70B881F991F5A95A9F7809590950F
:10163000BC01CD010895EE0FFF1F0590F491E02D40
:101640000994F894FFCF01000000000000002C0175
:101650008C00B9007901EA00C800DC0053746174A1
:10166000653A200020416374696F6E3A2000205271
:1016700065776172643A20006E616E00696E660083
:081680006F7666000D0A000000
:107E0000112484B714BE81FFF0D085E080938100F7
:107E100082E08093C00088E18093C10086E0809377
:107E2000C20080E18093C4008EE0C9D0259A86E02C
:107E300020E33CEF91E0309385002093840096BBD3
:107E4000B09BFECF1D9AA8958150A9F7CC24DD24C4
:107E500088248394B5E0AB2EA1E19A2EF3E0BF2EE7
:107E6000A2D0813461F49FD0082FAFD0023811F036
:107E7000013811F484E001C083E08DD089C08234E0
:107E800011F484E103C0853419F485E0A6D080C0E4
:107E9000853579F488D0E82EFF2485D0082F10E0AE
:107EA000102F00270E291F29000F111F8ED06801E7
:107EB0006FC0863521F484E090D080E0DECF843638
:107EC00009F040C070D06FD0082F6DD080E0C81688
:107ED00080E7D80618F4F601B7BEE895C0E0D1E017
:107EE00062D089930C17E1F7F0E0CF16F0E7DF06D8
:107EF00018F0F601B7BEE89568D007B600FCFDCFD4
:107F0000A601A0E0B1E02C9130E011968C91119780
:107F100090E0982F8827822B932B1296FA010C0160
:107F200087BEE89511244E5F5F4FF1E0A038BF0790
:107F300051F7F601A7BEE89507B600FCFDCF97BE46
:107F4000E89526C08437B1F42ED02DD0F82E2BD052
:107F50003CD0F601EF2C8F010F5F1F4F84911BD097
:107F6000EA94F801C1F70894C11CD11CFA94CF0C13
:107F7000D11C0EC0853739F428D08EE10CD085E9AC
:107F80000AD08FE07ACF813511F488E018D01DD067
:107F900080E101D065CF982F8091C00085FFFCCF94
:107FA0009093C60008958091C00087FFFCCF809118
:107FB000C00084FD01C0A8958091C6000895E0E648
:107FC000F0E098E1908380830895EDDF803219F02E
:107FD00088E0F5DFFFCF84E1DECF1F93182FE3DFCA
:107FE0001150E9F7F2DF1F91089580E0E8DFEE27F6
:047FF000FF270994CA
:027FFE00040479
:00000001FF
