:020000040000FA
:100000000C945D000C94BA030C9493030C9485003B
:100010000C9485000C9485000C9485000C9485004C
:100020000C9485000C9485000C9485000C9485003C
:100030000C9485000C9485000C9485000C9485002C
:100040000C9449030C9485000C9407040C94E10370
:100050000C9485000C9485000C9485000C9485000C
:100060000C9485000C9485000000000024002700FB
:100070002A0000000000250028002B0004040404CE
:100080000404040402020202020203030303030342
:10009000010204081020408001020408102001021F
:1000A00004081020000000080002010000030407FB
:1000B00000000000000000001B0711241FBECFEF4E
:1000C000D8E0DEBFCDBF11E0A0E0B1E0EAE6F3E1A9
:1000D00002C005900D92A435B107D9F722E0A4E53E
:1000E000B1E001C01D92A231B207E1F710E0CDE509
:1000F000D0E004C02197FE010E94AD09CC35D107A4
:10010000C9F70E9439040C94B3090C94000090E0E4
:10011000FC01EC55FF4F2491FC01E057FF4F349157
:10012000FC01E458FF4FE491EE23C9F0222339F09B
:10013000233001F1A8F4213019F1223029F1F0E047
:10014000EE0FFF1FEE58FF4FA591B4918FB7F894B3
:10015000EC91611126C030953E233C938FBF0895EA
:100160002730A9F02830C9F0243049F78091800069
:100170008F7D03C0809180008F7780938000DFCFD8
:1001800084B58F7784BDDBCF84B58F7DFBCF809125
:10019000B0008F778093B000D2CF8091B0008F7D78
:1001A000F9CF3E2BDACFCF93DF9390E0FC01E057FD
:1001B000FF4F249184589F4FFC0184918823D1F0F4
:1001C00090E0880F991FFC01E859FF4FA591B49169
:1001D000FC01EE58FF4FC591D49161110EC09FB73D
:1001E000F8948C91E22FE0958E238C932881E22362
:1001F000E8839FBFDF91CF9108958FB7F894EC917A
:10020000E22BEC938FBFF6CF80915601909157016E
:100210000196909357018093560108950895AF92E7
:10022000BF92CF92DF92EF92FF920F931F93CF93E3
:10023000DF936C017B018B01040F151FEB015E0145
:10024000AE18BF08C017D10759F06991D601ED91DA
:10025000FC910190F081E02DC6010995892B79F779
:10026000C501DF91CF911F910F91FF90EF90DF902B
:10027000CF90BF90AF900895FC01538D448D252FF2
:1002800030E0842F90E0821B930B541710F0CF9630
:10029000089501970895FC01918D828D981761F062
:1002A000A28DAE0FBF2FB11D5D968C91928D9F5F79
:1002B0009F73928F90E008958FEF9FEF0895FC0158
:1002C000918D828D981731F0828DE80FF11D858D0B
:1002D00090E008958FEF9FEF0895FC01918D228D9E
:1002E000892F90E0805C9F4F821B91098F73992723
:1002F000089585E791E00E946D0121E0892B09F4C2
:1003000020E0822F089580E090E0892B29F00E9460
:10031000790181110C9400000895FC01A48DA80FAF
:10032000B92FB11DA35ABF4F2C91848D90E0019637
:100330008F739927848FA689B7892C93A089B18957
:100340008C91837080648C93938D848D981306C0F8
:100350000288F389E02D80818F7D80830895EF925C
:10036000FF920F931F93CF93DF93EC0181E0888F6F
:100370009B8D8C8D98131AC0E889F989808185FF3F
:1003800015C09FB7F894EE89FF896083E889F989E1
:1003900080818370806480839FBF81E090E0DF91E3
:1003A000CF911F910F91FF90EF900895F62E0B8D36
:1003B00010E00F5F1F4F0F731127E02E8C8D8E11F1
:1003C0000CC00FB607FCFACFE889F989808185FF58
:1003D000F5CFCE010E948D01F1CFEB8DEC0FFD2FFB
:1003E000F11DE35AFF4FF0829FB7F8940B8FEA8913
:1003F000FB8980818062CFCFCF93DF93EC01888D22
:100400008823B9F0AA89BB89E889F9898C9185FD8F
:1004100003C0808186FD0DC00FB607FCF7CF8C911D
:1004200085FFF2CF808185FFEDCFCE010E948D0147
:10043000E9CFDF91CF910895FC0101900020E9F709
:100440003197AF01481B590BBC0185E791E00C9433
:100450000F018F929F92AF92BF920F931F93CF93F2
:10046000DF93CDB7DEB7A1970FB6F894DEBF0FBE0E
:10047000CDBF19A2423008F44AE08E010F5D1F4F34
:10048000842E912CB12CA12CA50194010E948B09E2
:10049000E62FB901CA01EA30F4F4E05DD801EE9329
:1004A0008D01232B242B252B79F790E080E01097EA
:1004B00019F0CD010E941C02A1960FB6F894DEBF80
:1004C0000FBECDBFDF91CF911F910F91BF90AF9025
:1004D0009F908F900895E95CE1CF4F925F926F9269
:1004E0007F928F929F92AF92BF92CF92DF92EF92C4
:1004F000FF920F931F93CF936B017C01742EAC017D
:100500009B010E948609882399F086E191E0CF91B2
:100510001F910F91FF90EF90DF90CF90BF90AF9021
:100520009F908F907F906F905F904F900C941C02E3
:1005300046015701E894B7F82FEF3FEF4FE75FE729
:10054000C501B4010E94860981110DC02FEF3FEF54
:100550004FE75FE7C501B4010E94B50718161CF408
:100560008AE191E0D4CF2FEF3FEF4FE75FE4C7017F
:10057000B6010E94140918161CF48EE191E0C7CF51
:100580002FEF3FEF4FE75FECC701B6010E94B507C1
:1005900087FDF3CF20E030E0A901C701B6010E943A
:1005A000B50710E000E087FF0AC06DE285E791E043
:1005B0000E94AF018C01F7FAF094F7F8F094C0E0D4
:1005C00060E070E080E09FE37C1641F020E030E0E6
:1005D00040E251E40E94BA07CF5FF6CFA70196012F
:1005E0000E9449072B013C010E9433084B015C012A
:1005F0004AE00E9429027C01E00EF11ECC23C1F1E9
:10060000C501B4010E9462089B01AC01C301B201A3
:100610000E9448074B015C016EE285E791E00E9471
:10062000AF01E80EF91EC15018F120E030E040E2C1
:1006300051E4C501B4010E9419092B013C010E943B
:1006400033084B01B12CA12C4AE0C501B4010E9432
:100650002902E80EF91EC501B4010E9462089B013F
:10066000AC01C301B2010E9448074B015C01DBCF22
:10067000C701CF911F910F91FF90EF90DF90CF9026
:10068000BF90AF909F908F907F906F905F904F90B2
:1006900008951F920F920FB60F9211242F933F933C
:1006A0008F939F93AF93BF9380917101909172014B
:1006B000A0917301B09174013091700123E0230F78
:1006C0002D3758F50196A11DB11D2093700180931F
:1006D000710190937201A0937301B09374018091A2
:1006E0006C0190916D01A0916E01B0916F01019626
:1006F000A11DB11D80936C0190936D01A0936E01BB
:10070000B0936F01BF91AF919F918F913F912F91C6
:100710000F900FBE0F901F90189526E8230F02969A
:10072000A11DB11DD2CF1F920F920FB60F921124AF
:100730002F933F934F935F936F937F938F939F93E9
:10074000AF93BF93EF93FF93E0910201F091030108
:100750000995FF91EF91BF91AF919F918F917F91FB
:100760006F915F914F913F912F910F900FBE0F901E
:100770001F9018951F920F920FB60F9211242F936E
:100780003F934F935F936F937F938F939F93AF9319
:10079000BF93EF93FF93E0910001F0910101099560
:1007A000FF91EF91BF91AF919F918F917F916F9149
:1007B0005F914F913F912F910F900FBE0F901F901F
:1007C00018951F920F920FB60F9211242F933F93FB
:1007D0004F935F936F937F938F939F93AF93BF9349
:1007E000EF93FF9385E791E00E948D01FF91EF91D8
:1007F000BF91AF919F918F917F916F915F914F9139
:100800003F912F910F900FBE0F901F9018951F9240
:100810000F920FB60F9211242F938F939F93EF9304
:10082000FF93E0918501F09186018081E0918B0139
:10083000F0918C0182FD1BC0908180918E018F5FB1
:100840008F7320918F01821741F0E0918E01F0E0CB
:10085000EB58FE4F958F80938E01FF91EF919F9102
:100860008F912F910F900FBE0F901F901895808140
:10087000F4CF789484B5826084BD84B5816084BDF2
:1008800085B5826085BD85B5816085BD80916E002E
:10089000816080936E00109281008091810082605F
:1008A000809381008091810081608093810080919C
:1008B00080008160809380008091B100846080938B
:1008C000B1008091B00081608093B00080917A0087
:1008D000846080937A0080917A00826080937A00AD
:1008E00080917A00816080937A0080917A0080689C
:1008F00080937A001092C10060E082E00E94D300F1
:1009000060E083E00E94D30061E08BE00E94D300AE
:1009100061E08AE00E94D30061E089E00E94D30098
:1009200024E031E0309301012093000180916900BF
:10093000836080936900E89A309303012093020159
:10094000809169008C6080936900E99A309301017D
:1009500020930001809169008C7F82608093690000
:10096000E89A309303012093020180916900837F0C
:10097000886080936900E99AE0918501F091860191
:1009800082E08083E0918101F09182011082E09108
:100990008301F09184018FEC808310928D01E091AE
:1009A0008901F0918A0186E08083E0918701F091CE
:1009B0008801808180618083E0918701F0918801C6
:1009C000808188608083E0918701F0918801808137
:1009D00080688083E0918701F091880180818F7D1C
:1009E000808382E291E00E941C028DE391E00E94EC
:1009F0001C0280E491E00E941C0220916001309171
:100A00006101409162015091630160E070E084E314
:100A100093E40E94480742E00E946D028DE491E059
:100A20000E941C028DE391E00E941C020DEA10E07E
:100A3000C0E0D0E09FB7F894C0906C01D0906D01F9
:100A4000E0906E01F0906F0186B5A89B07C08F3FC4
:100A500029F02FEFC21AD20AE20AF20A9FBFFE2C37
:100A6000ED2CDC2CCC24C80ED11CE11CF11C22E0A6
:100A7000CC0CDD1CEE1CFF1C2A95D1F7809168017F
:100A800090916901A0916A01B0916B01A701960153
:100A9000281B390B4A0B5B0BDA01C9018035934CDB
:100AA000A105B10508F453C120E030E543E457E463
:100AB0006091640170916501809166019091670178
:100AC0000E94190920E034E244E759E40E94BA0781
:100AD0002091600130916101409162015091630168
:100AE0000E9449079B01AC01209360013093610192
:100AF000409362015093630160E070E084E393E40B
:100B00000E9448072B013C0120E030E543E457E414
:100B10000E94190920E034E244E759E40E94BA0730
:100B200020915C0130915D0140915E0150915F0127
:100B30000E9449074B015C0180925C0190925D012B
:100B4000A0925E01B0925F012DEC3CE044E954E4D8
:100B5000C301B2010E9419092B013C012DEE34ECB6
:100B600043E654E4C501B4010E9419099B01AC019C
:100B7000C301B2010E9449074B015C0180925801F8
:100B800090925901A0925A01B0925B018091560156
:100B9000909157012091540130915501821B930B84
:100BA00090935701809356016091560170915701BF
:100BB000072E000C880B990B0E94640820E030E09F
:100BC00044EB53E40E94190920E030E543E457E484
:100BD0000E94BA0720E030E040EC52E40E94BA07DD
:100BE00020E034E244E759E40E94190922E73DE499
:100BF00041E65DE30E9419092B013C01409264012A
:100C000050926501609266017092670120E030E0C9
:100C1000A901C501B4010E94140918160CF0A2C064
:100C200061E08BE00E94870060E08AE00E9487001C
:100C300020E030E04FE753E4609158017091590192
:100C400080915A0190915B010E941409181664F476
:100C500080E090E0AFE7B3E48093580190935901AE
:100C6000A0935A01B0935B016091580170915901B2
:100C700080915A0190915B010E942C082B015B012D
:100C800061E089E00E94D3004114510409F08BC057
:100C900060E089E00E9487004AE0C701B6010E9437
:100CA00029028BE491E00E941C0260916001709126
:100CB0006101809162019091630142E00E946D02A6
:100CC0008BE491E00E941C026091640170916501C7
:100CD000809166019091670142E00E946D028BE471
:100CE00091E00E941C0220916001309161014091CD
:100CF00062015091630160E070E084E393E40E943C
:100D0000480742E00E946D028BE491E00E941C02C1
:100D1000609158017091590180915A0190915B0145
:100D200042E00E946D028DE391E00E941C02C0929D
:100D30006801D0926901E0926A01F0926B018091A2
:100D4000560190915701909355018093540120973B
:100D500009F470CE0E947901882309F46BCE0E94B9
:100D6000000068CE60E08BE00E94870061E08AE0CE
:100D70000E94870077FA709477F87094409264012B
:100D8000509265016092660170926701B7FAB09463
:100D9000B7F8B0948092580190925901A0925A01EC
:100DA000B0925B0145CF4FEF4416510411F461E05E
:100DB00070CFF8018491833021F148F48130B9F08B
:100DC0008230D1F0F0E8AF16B1048CF761CF8730F4
:100DD00011F1883041F18430A9F780918000806260
:100DE0008093800050928B0040928A0055CF84B54A
:100DF000806884BD47BC50CF84B5806284BD48BC48
:100E00004BCF809180008068809380005092890051
:100E10004092880041CF8091B00080688093B000FC
:100E20004092B30039CF8091B00080628093B000CF
:100E30004092B40031CFE5E7F1E01382128288EEF0
:100E400093E0A0E0B0E084839583A683B78388E035
:100E500091E09183808385EC90E09587848784EC92
:100E600090E09787868780EC90E0918B808B81EC77
:100E700090E0938B828B82EC90E0958B848B86EC58
:100E800090E0978B868B118E128E138E148E0895A0
:100E90005058BB27AA270E9460070C94DA080E94CA
:100EA000CC0838F00E94D30820F039F49F3F19F4A1
:100EB00026F40C94C9080EF4E095E7FB0C94C308E3
:100EC000E92F0E94EB0858F3BA17620773078407EB
:100ED000950720F079F4A6F50C940D090EF4E09531
:100EE0000B2EBA2FA02D0B01B90190010C01CA01E4
:100EF000A0011124FF27591B99F0593F50F4503E8F
:100F000068F11A16F040A22F232F342F4427585F80
:100F1000F3CF469537952795A795F0405395C9F798
:100F20007EF41F16BA0B620B730B840BBAF0915050
:100F3000A1F0FF0FBB1F661F771F881FC2F70EC0EF
:100F4000BA0F621F731F841F48F4879577956795C2
:100F5000B795F7959E3F08F0B0CF9395880F08F0AE
:100F60009927EE0F9795879508950E949F0808F49A
:100F700081E008950E94CE070C94DA080E94D308FD
:100F800058F00E94CC0840F029F45F3F29F00C94FF
:100F9000C30851110C940E090C94C9080E94EB0867
:100FA00068F39923B1F3552391F3951B550BBB2798
:100FB000AA2762177307840738F09F5F5F4F220FDD
:100FC000331F441FAA1FA9F335D00E2E3AF0E0E8D4
:100FD00032D091505040E695001CCAF72BD0FE2F1E
:100FE00029D0660F771F881FBB1F261737074807B2
:100FF000AB07B0E809F0BB0B802DBF01FF2793586A
:101000005F4F3AF09E3F510578F00C94C3080C9462
:101010000E095F3FE4F3983ED4F386957795679584
:10102000B795F7959F5FC9F7880F911D969587959E
:1010300097F90895E1E0660F771F881FBB1F6217BD
:1010400073078407BA0720F0621B730B840BBA0B7B
:10105000EE1F88F7E09508950E9433086894B11157
:101060000C940E0908950E94F30888F09F5798F099
:10107000B92F9927B751B0F0E1F0660F771F881F9D
:10108000991F1AF0BA95C9F714C0B13091F00E94B7
:101090000D09B1E008950C940D09672F782F88276A
:1010A000B85F39F0B93FCCF3869577956795B395DE
:1010B000D9F73EF490958095709561957F4F8F4F4D
:1010C0009F4F0895E89409C097FB3EF49095809552
:1010D000709561957F4F8F4F9F4F9923A9F0F92FFE
:1010E00096E9BB279395F695879577956795B7957C
:1010F000F111F8CFFAF4BB0F11F460FF1BC06F5F62
:101100007F4F8F4F9F4F16C0882311F096E911C073
:10111000772321F09EE8872F762F05C0662371F094
:1011200096E8862F70E060E02AF09A95660F771FA8
:10113000881FDAF7880F9695879597F90895990F84
:101140000008550FAA0BE0E8FEEF16161706E80791
:10115000F907C0F012161306E407F50798F0621BB2
:10116000730B840B950B39F40A2661F0232B242B87
:10117000252B21F408950A2609F4A140A6958FEFA6
:10118000811D811D089597F99F6780E870E060E0F8
:1011900008959FEF80EC089500240A941616170610
:1011A00018060906089500240A9412161306140658
:1011B00005060895092E0394000C11F4882352F0BB
:1011C000BB0F40F4BF2B11F460FF04C06F5F7F4F73
:1011D0008F4F9F4F089557FD9058440F551F59F05A
:1011E0005F3F71F04795880F97FB991F61F09F3F14
:1011F00079F087950895121613061406551FF2CF3D
:101200004695F1DF08C0161617061806991FF1CF8C
:1012100086957105610508940895E894BB276627B3
:101220007727CB0197F908950E949F0808F48FEF64
:1012300008950E942C090C94DA080E94CC0838F01A
:101240000E94D30820F0952311F00C94C3080C944D
:10125000C90811240C940E090E94EB0870F3959FA5
:10126000C1F3950F50E0551F629FF001729FBB279D
:10127000F00DB11D639FAA27F00DB11DAA1F649F39
:101280006627B00DA11D661F829F2227B00DA11DEC
:10129000621F739FB00DA11D621F839FA00D611D72
:1012A000221F749F3327A00D611D231F849F600D93
:1012B000211D822F762F6A2F11249F5750409AF0BC
:1012C000F1F088234AF0EE0FFF1FBB1F661F771F48
:1012D000881F91505040A9F79E3F510580F00C9413
:1012E000C3080C940E095F3FE4F3983ED4F386954F
:1012F00077956795B795F795E7959F5FC1F7FE2BB3
:10130000880F911D9695879597F908950E949F08DB
:10131000880B990B0895A1E21A2EAA1BBB1BFD0195
:101320000DC0AA1FBB1FEE1FFF1FA217B307E407C4
:10133000F50720F0A21BB30BE40BF50B661F771F1C
:10134000881F991F1A9469F76095709580959095FC
:101350009B01AC01BD01CF010895EE0FFF1F059069
:10136000F491E02D0994F894FFCF0E010E010000D6
:101370000000AF010F013C01FC016D014B015F0159
:101380006E616E00696E66006F766600743B746510
:1013900074612874293B77722874293B65727265E1
:1013A00075723B70776D000D0A00303B302E303087
:0E13B0003B302E30303B003B302E3030000002
:107E0000112484B714BE81FFF0D085E080938100F7
:107E100082E08093C00088E18093C10086E0809377
:107E2000C20080E18093C4008EE0C9D0259A86E02C
:107E300020E33CEF91E0309385002093840096BBD3
:107E4000B09BFECF1D9AA8958150A9F7CC24DD24C4
:107E500088248394B5E0AB2EA1E19A2EF3E0BF2EE7
:107E6000A2D0813461F49FD0082FAFD0023811F036
:107E7000013811F484E001C083E08DD089C08234E0
:107E800011F484E103C0853419F485E0A6D080C0E4
:107E9000853579F488D0E82EFF2485D0082F10E0AE
:107EA000102F00270E291F29000F111F8ED06801E7
:107EB0006FC0863521F484E090D080E0DECF843638
:107EC00009F040C070D06FD0082F6DD080E0C81688
:107ED00080E7D80618F4F601B7BEE895C0E0D1E017
:107EE00062D089930C17E1F7F0E0CF16F0E7DF06D8
:107EF00018F0F601B7BEE89568D007B600FCFDCFD4
:107F0000A601A0E0B1E02C9130E011968C91119780
:107F100090E0982F8827822B932B1296FA010C0160
:107F200087BEE89511244E5F5F4FF1E0A038BF0790
:107F300051F7F601A7BEE89507B600FCFDCF97BE46
:107F4000E89526C08437B1F42ED02DD0F82E2BD052
:107F50003CD0F601EF2C8F010F5F1F4F84911BD097
:107F6000EA94F801C1F70894C11CD11CFA94CF0C13
:107F7000D11C0EC0853739F428D08EE10CD085E9AC
:107F80000AD08FE07ACF813511F488E018D01DD067
:107F900080E101D065CF982F8091C00085FFFCCF94
:107FA0009093C60008958091C00087FFFCCF809118
:107FB000C00084FD01C0A8958091C6000895E0E648
:107FC000F0E098E1908380830895EDDF803219F02E
:107FD00088E0F5DFFFCF84E1DECF1F93182FE3DFCA
:107FE0001150E9F7F2DF1F91089580E0E8DFEE27F6
:047FF000FF270994CA
:027FFE00040479
:00000001FF
